{
  "_format": "hh-sol-artifact-1",
  "contractName": "MyNFTs",
  "sourceName": "contracts/NFT.sol",
  "abi": [
    {
      "inputs": [],
      "stateMutability": "payable",
      "type": "constructor"
    },
    {
      "anonymous": false,
      "inputs": [
        {
          "indexed": true,
          "internalType": "address",
          "name": "owner",
          "type": "address"
        },
        {
          "indexed": true,
          "internalType": "address",
          "name": "approved",
          "type": "address"
        },
        {
          "indexed": true,
          "internalType": "uint256",
          "name": "tokenId",
          "type": "uint256"
        }
      ],
      "name": "Approval",
      "type": "event"
    },
    {
      "anonymous": false,
      "inputs": [
        {
          "indexed": true,
          "internalType": "address",
          "name": "owner",
          "type": "address"
        },
        {
          "indexed": true,
          "internalType": "address",
          "name": "operator",
          "type": "address"
        },
        {
          "indexed": false,
          "internalType": "bool",
          "name": "approved",
          "type": "bool"
        }
      ],
      "name": "ApprovalForAll",
      "type": "event"
    },
    {
      "anonymous": false,
      "inputs": [
        {
          "indexed": true,
          "internalType": "address",
          "name": "previousOwner",
          "type": "address"
        },
        {
          "indexed": true,
          "internalType": "address",
          "name": "newOwner",
          "type": "address"
        }
      ],
      "name": "OwnershipTransferred",
      "type": "event"
    },
    {
      "anonymous": false,
      "inputs": [
        {
          "indexed": true,
          "internalType": "address",
          "name": "from",
          "type": "address"
        },
        {
          "indexed": true,
          "internalType": "address",
          "name": "to",
          "type": "address"
        },
        {
          "indexed": true,
          "internalType": "uint256",
          "name": "tokenId",
          "type": "uint256"
        }
      ],
      "name": "Transfer",
      "type": "event"
    },
    {
      "inputs": [
        {
          "internalType": "address",
          "name": "to",
          "type": "address"
        },
        {
          "internalType": "uint256",
          "name": "tokenId",
          "type": "uint256"
        }
      ],
      "name": "approve",
      "outputs": [],
      "stateMutability": "nonpayable",
      "type": "function"
    },
    {
      "inputs": [
        {
          "internalType": "address",
          "name": "owner",
          "type": "address"
        }
      ],
      "name": "balanceOf",
      "outputs": [
        {
          "internalType": "uint256",
          "name": "",
          "type": "uint256"
        }
      ],
      "stateMutability": "view",
      "type": "function"
    },
    {
      "inputs": [
        {
          "internalType": "uint256",
          "name": "tokenId",
          "type": "uint256"
        }
      ],
      "name": "getApproved",
      "outputs": [
        {
          "internalType": "address",
          "name": "",
          "type": "address"
        }
      ],
      "stateMutability": "view",
      "type": "function"
    },
    {
      "inputs": [
        {
          "internalType": "address",
          "name": "owner",
          "type": "address"
        },
        {
          "internalType": "address",
          "name": "operator",
          "type": "address"
        }
      ],
      "name": "isApprovedForAll",
      "outputs": [
        {
          "internalType": "bool",
          "name": "",
          "type": "bool"
        }
      ],
      "stateMutability": "view",
      "type": "function"
    },
    {
      "inputs": [],
      "name": "isPublicMintEnabled",
      "outputs": [
        {
          "internalType": "bool",
          "name": "",
          "type": "bool"
        }
      ],
      "stateMutability": "view",
      "type": "function"
    },
    {
      "inputs": [],
      "name": "maxPerWallet",
      "outputs": [
        {
          "internalType": "uint256",
          "name": "",
          "type": "uint256"
        }
      ],
      "stateMutability": "view",
      "type": "function"
    },
    {
      "inputs": [],
      "name": "maxSupply",
      "outputs": [
        {
          "internalType": "uint256",
          "name": "",
          "type": "uint256"
        }
      ],
      "stateMutability": "view",
      "type": "function"
    },
    {
      "inputs": [
        {
          "internalType": "uint256",
          "name": "quantity_",
          "type": "uint256"
        }
      ],
      "name": "mint",
      "outputs": [],
      "stateMutability": "payable",
      "type": "function"
    },
    {
      "inputs": [],
      "name": "mintPrice",
      "outputs": [
        {
          "internalType": "uint256",
          "name": "",
          "type": "uint256"
        }
      ],
      "stateMutability": "view",
      "type": "function"
    },
    {
      "inputs": [],
      "name": "name",
      "outputs": [
        {
          "internalType": "string",
          "name": "",
          "type": "string"
        }
      ],
      "stateMutability": "view",
      "type": "function"
    },
    {
      "inputs": [],
      "name": "owner",
      "outputs": [
        {
          "internalType": "address",
          "name": "",
          "type": "address"
        }
      ],
      "stateMutability": "view",
      "type": "function"
    },
    {
      "inputs": [
        {
          "internalType": "uint256",
          "name": "tokenId",
          "type": "uint256"
        }
      ],
      "name": "ownerOf",
      "outputs": [
        {
          "internalType": "address",
          "name": "",
          "type": "address"
        }
      ],
      "stateMutability": "view",
      "type": "function"
    },
    {
      "inputs": [],
      "name": "renounceOwnership",
      "outputs": [],
      "stateMutability": "nonpayable",
      "type": "function"
    },
    {
      "inputs": [
        {
          "internalType": "address",
          "name": "from",
          "type": "address"
        },
        {
          "internalType": "address",
          "name": "to",
          "type": "address"
        },
        {
          "internalType": "uint256",
          "name": "tokenId",
          "type": "uint256"
        }
      ],
      "name": "safeTransferFrom",
      "outputs": [],
      "stateMutability": "nonpayable",
      "type": "function"
    },
    {
      "inputs": [
        {
          "internalType": "address",
          "name": "from",
          "type": "address"
        },
        {
          "internalType": "address",
          "name": "to",
          "type": "address"
        },
        {
          "internalType": "uint256",
          "name": "tokenId",
          "type": "uint256"
        },
        {
          "internalType": "bytes",
          "name": "_data",
          "type": "bytes"
        }
      ],
      "name": "safeTransferFrom",
      "outputs": [],
      "stateMutability": "nonpayable",
      "type": "function"
    },
    {
      "inputs": [
        {
          "internalType": "address",
          "name": "operator",
          "type": "address"
        },
        {
          "internalType": "bool",
          "name": "approved",
          "type": "bool"
        }
      ],
      "name": "setApprovalForAll",
      "outputs": [],
      "stateMutability": "nonpayable",
      "type": "function"
    },
    {
      "inputs": [
        {
          "internalType": "string",
          "name": "baseTokenUri_",
          "type": "string"
        }
      ],
      "name": "setBaseTokenUri",
      "outputs": [],
      "stateMutability": "nonpayable",
      "type": "function"
    },
    {
      "inputs": [
        {
          "internalType": "bool",
          "name": "isPublicMintEnabled_",
          "type": "bool"
        }
      ],
      "name": "setIsPublicMintEnabled",
      "outputs": [],
      "stateMutability": "nonpayable",
      "type": "function"
    },
    {
      "inputs": [
        {
          "internalType": "bytes4",
          "name": "interfaceId",
          "type": "bytes4"
        }
      ],
      "name": "supportsInterface",
      "outputs": [
        {
          "internalType": "bool",
          "name": "",
          "type": "bool"
        }
      ],
      "stateMutability": "view",
      "type": "function"
    },
    {
      "inputs": [],
      "name": "symbol",
      "outputs": [
        {
          "internalType": "string",
          "name": "",
          "type": "string"
        }
      ],
      "stateMutability": "view",
      "type": "function"
    },
    {
      "inputs": [
        {
          "internalType": "uint256",
          "name": "tokenId_",
          "type": "uint256"
        }
      ],
      "name": "tokenURI",
      "outputs": [
        {
          "internalType": "string",
          "name": "",
          "type": "string"
        }
      ],
      "stateMutability": "view",
      "type": "function"
    },
    {
      "inputs": [],
      "name": "totalSupply",
      "outputs": [
        {
          "internalType": "uint256",
          "name": "",
          "type": "uint256"
        }
      ],
      "stateMutability": "view",
      "type": "function"
    },
    {
      "inputs": [
        {
          "internalType": "address",
          "name": "from",
          "type": "address"
        },
        {
          "internalType": "address",
          "name": "to",
          "type": "address"
        },
        {
          "internalType": "uint256",
          "name": "tokenId",
          "type": "uint256"
        }
      ],
      "name": "transferFrom",
      "outputs": [],
      "stateMutability": "nonpayable",
      "type": "function"
    },
    {
      "inputs": [
        {
          "internalType": "address",
          "name": "newOwner",
          "type": "address"
        }
      ],
      "name": "transferOwnership",
      "outputs": [],
      "stateMutability": "nonpayable",
      "type": "function"
    },
    {
      "inputs": [
        {
          "internalType": "address",
          "name": "",
          "type": "address"
        }
      ],
      "name": "walletMints",
      "outputs": [
        {
          "internalType": "uint256",
          "name": "",
          "type": "uint256"
        }
      ],
      "stateMutability": "view",
      "type": "function"
    },
    {
      "inputs": [],
      "name": "withdraw",
      "outputs": [],
      "stateMutability": "nonpayable",
      "type": "function"
    },
    {
      "inputs": [],
      "name": "withdrawWallet",
      "outputs": [
        {
          "internalType": "address payable",
          "name": "",
          "type": "address"
        }
      ],
      "stateMutability": "view",
      "type": "function"
    }
  ],
  "bytecode": "0x60086080818152674f6e6c794170657360c01b60a0908152610100604052600260c0908152614f4160f01b60e05291926200003d91600091620000e7565b50805162000053906001906020840190620000e7565b505050620000706200006a6200009160201b60201c565b62000095565b6702c68af0bb140000600755600060085560646009556003600a55620001ca565b3390565b600680546001600160a01b038381166001600160a01b0319831681179093556040519116919082907f8be0079c531659141344cd1fd0a4f28419497f9722a3daafe3b4186f6b6457e090600090a35050565b828054620000f5906200018d565b90600052602060002090601f01602090048101928262000119576000855562000164565b82601f106200013457805160ff191683800117855562000164565b8280016001018555821562000164579182015b828111156200016457825182559160200191906001019062000147565b506200017292915062000176565b5090565b5b8082111562000172576000815560010162000177565b600181811c90821680620001a257607f821691505b60208210811415620001c457634e487b7160e01b600052602260045260246000fd5b50919050565b611c7d80620001da6000396000f3fe60806040526004361061019c5760003560e01c806370a08231116100ec578063a22cb4651161008a578063d5abeb0111610064578063d5abeb011461046c578063e985e9c514610482578063f0293fd3146104cb578063f2fde38b146104f857600080fd5b8063a22cb4651461040c578063b88d4fde1461042c578063c87b56dd1461044c57600080fd5b80638da5cb5b116100c65780638da5cb5b146103a657806395652cfa146103c457806395d89b41146103e4578063a0712d68146103f957600080fd5b806370a0823114610351578063715018a61461037157806385d178f41461038657600080fd5b80632373ac221161015957806342842e0e1161013357806342842e0e146102e5578063453c2310146103055780636352211e1461031b5780636817c76c1461033b57600080fd5b80632373ac221461029057806323b872dd146102b05780633ccfd60b146102d057600080fd5b80630116bc2d146101a157806301ffc9a7146101d057806306fdde03146101f0578063081812fc14610212578063095ea7b31461024a57806318160ddd1461026c575b600080fd5b3480156101ad57600080fd5b50600b546101bb9060ff1681565b60405190151581526020015b60405180910390f35b3480156101dc57600080fd5b506101bb6101eb366004611810565b610518565b3480156101fc57600080fd5b5061020561056a565b6040516101c79190611a0c565b34801561021e57600080fd5b5061023261022d3660046118b5565b6105fc565b6040516001600160a01b0390911681526020016101c7565b34801561025657600080fd5b5061026a6102653660046117cd565b610696565b005b34801561027857600080fd5b5061028260085481565b6040519081526020016101c7565b34801561029c57600080fd5b5061026a6102ab3660046117f6565b6107ac565b3480156102bc57600080fd5b5061026a6102cb366004611694565b6107e9565b3480156102dc57600080fd5b5061026a61081a565b3480156102f157600080fd5b5061026a610300366004611694565b6108dc565b34801561031157600080fd5b50610282600a5481565b34801561032757600080fd5b506102326103363660046118b5565b6108f7565b34801561034757600080fd5b5061028260075481565b34801561035d57600080fd5b5061028261036c366004611641565b61096e565b34801561037d57600080fd5b5061026a6109f5565b34801561039257600080fd5b50600d54610232906001600160a01b031681565b3480156103b257600080fd5b506006546001600160a01b0316610232565b3480156103d057600080fd5b5061026a6103df366004611848565b610a2b565b3480156103f057600080fd5b50610205610a61565b61026a6104073660046118b5565b610a70565b34801561041857600080fd5b5061026a6104273660046117a4565b610c04565b34801561043857600080fd5b5061026a6104473660046116cf565b610c0f565b34801561045857600080fd5b506102056104673660046118b5565b610c47565b34801561047857600080fd5b5061028260095481565b34801561048e57600080fd5b506101bb61049d366004611662565b6001600160a01b03918216600090815260056020908152604080832093909416825291909152205460ff1690565b3480156104d757600080fd5b506102826104e6366004611641565b600e6020526000908152604090205481565b34801561050457600080fd5b5061026a610513366004611641565b610cd9565b60006001600160e01b031982166380ac58cd60e01b148061054957506001600160e01b03198216635b5e139f60e01b145b8061056457506301ffc9a760e01b6001600160e01b03198316145b92915050565b60606000805461057990611b85565b80601f01602080910402602001604051908101604052809291908181526020018280546105a590611b85565b80156105f25780601f106105c7576101008083540402835291602001916105f2565b820191906000526020600020905b8154815290600101906020018083116105d557829003601f168201915b5050505050905090565b6000818152600260205260408120546001600160a01b031661067a5760405162461bcd60e51b815260206004820152602c60248201527f4552433732313a20617070726f76656420717565727920666f72206e6f6e657860448201526b34b9ba32b73a103a37b5b2b760a11b60648201526084015b60405180910390fd5b506000908152600460205260409020546001600160a01b031690565b60006106a1826108f7565b9050806001600160a01b0316836001600160a01b0316141561070f5760405162461bcd60e51b815260206004820152602160248201527f4552433732313a20617070726f76616c20746f2063757272656e74206f776e656044820152603960f91b6064820152608401610671565b336001600160a01b038216148061072b575061072b813361049d565b61079d5760405162461bcd60e51b815260206004820152603860248201527f4552433732313a20617070726f76652063616c6c6572206973206e6f74206f7760448201527f6e6572206e6f7220617070726f76656420666f7220616c6c00000000000000006064820152608401610671565b6107a78383610d71565b505050565b6006546001600160a01b031633146107d65760405162461bcd60e51b815260040161067190611a71565b600b805460ff1916911515919091179055565b6107f33382610ddf565b61080f5760405162461bcd60e51b815260040161067190611aa6565b6107a7838383610ed6565b6006546001600160a01b031633146108445760405162461bcd60e51b815260040161067190611a71565b600d546040516000916001600160a01b03169047908381818185875af1925050503d8060008114610891576040519150601f19603f3d011682016040523d82523d6000602084013e610896565b606091505b50509050806108d95760405162461bcd60e51b815260206004820152600f60248201526e1dda5d1a191c985dc819985a5b1959608a1b6044820152606401610671565b50565b6107a783838360405180602001604052806000815250610c0f565b6000818152600260205260408120546001600160a01b0316806105645760405162461bcd60e51b815260206004820152602960248201527f4552433732313a206f776e657220717565727920666f72206e6f6e657869737460448201526832b73a103a37b5b2b760b91b6064820152608401610671565b60006001600160a01b0382166109d95760405162461bcd60e51b815260206004820152602a60248201527f4552433732313a2062616c616e636520717565727920666f7220746865207a65604482015269726f206164647265737360b01b6064820152608401610671565b506001600160a01b031660009081526003602052604090205490565b6006546001600160a01b03163314610a1f5760405162461bcd60e51b815260040161067190611a71565b610a296000611072565b565b6006546001600160a01b03163314610a555760405162461bcd60e51b815260040161067190611a71565b6107a7600c838361157c565b60606001805461057990611b85565b600b5460ff16610ab85760405162461bcd60e51b81526020600482015260136024820152721b5a5b9d1a5b99c81b9bdd08195b98589b1959606a1b6044820152606401610671565b600754610ac59082611b23565b3414610b065760405162461bcd60e51b815260206004820152601060248201526f77726f6e67206d696e742076616c756560801b6044820152606401610671565b60095481600854610b179190611af7565b1115610b505760405162461bcd60e51b81526020600482015260086024820152671cdbdb19081bdd5d60c21b6044820152606401610671565b600a54336000908152600e6020526040902054610b6e908390611af7565b1115610bb05760405162461bcd60e51b8152602060048201526011602482015270195e18d95959081b585e081dd85b1b195d607a1b6044820152606401610671565b60005b81811015610c005760006008546001610bcc9190611af7565b600880549192506000610bde83611bc0565b9190505550610bed33826110c4565b5080610bf881611bc0565b915050610bb3565b5050565b610c003383836110de565b610c193383610ddf565b610c355760405162461bcd60e51b815260040161067190611aa6565b610c41848484846111ad565b50505050565b6000818152600260205260409020546060906001600160a01b0316610ca75760405162461bcd60e51b8152602060048201526016602482015275546f6b656e7320646f6573206e6f742065786973742160501b6044820152606401610671565b600c610cb2836111e0565b604051602001610cc3929190611915565b6040516020818303038152906040529050919050565b6006546001600160a01b03163314610d035760405162461bcd60e51b815260040161067190611a71565b6001600160a01b038116610d685760405162461bcd60e51b815260206004820152602660248201527f4f776e61626c653a206e6577206f776e657220697320746865207a65726f206160448201526564647265737360d01b6064820152608401610671565b6108d981611072565b600081815260046020526040902080546001600160a01b0319166001600160a01b0384169081179091558190610da6826108f7565b6001600160a01b03167f8c5be1e5ebec7d5bd14f71427d1e84f3dd0314c0f7b2291e5b200ac8c7c3b92560405160405180910390a45050565b6000818152600260205260408120546001600160a01b0316610e585760405162461bcd60e51b815260206004820152602c60248201527f4552433732313a206f70657261746f7220717565727920666f72206e6f6e657860448201526b34b9ba32b73a103a37b5b2b760a11b6064820152608401610671565b6000610e63836108f7565b9050806001600160a01b0316846001600160a01b03161480610eaa57506001600160a01b0380821660009081526005602090815260408083209388168352929052205460ff165b80610ece5750836001600160a01b0316610ec3846105fc565b6001600160a01b0316145b949350505050565b826001600160a01b0316610ee9826108f7565b6001600160a01b031614610f4d5760405162461bcd60e51b815260206004820152602560248201527f4552433732313a207472616e736665722066726f6d20696e636f72726563742060448201526437bbb732b960d91b6064820152608401610671565b6001600160a01b038216610faf5760405162461bcd60e51b8152602060048201526024808201527f4552433732313a207472616e7366657220746f20746865207a65726f206164646044820152637265737360e01b6064820152608401610671565b610fba600082610d71565b6001600160a01b0383166000908152600360205260408120805460019290610fe3908490611b42565b90915550506001600160a01b0382166000908152600360205260408120805460019290611011908490611af7565b909155505060008181526002602052604080822080546001600160a01b0319166001600160a01b0386811691821790925591518493918716917fddf252ad1be2c89b69c2b068fc378daa952ba7f163c4a11628f55a4df523b3ef91a4505050565b600680546001600160a01b038381166001600160a01b0319831681179093556040519116919082907f8be0079c531659141344cd1fd0a4f28419497f9722a3daafe3b4186f6b6457e090600090a35050565b610c008282604051806020016040528060008152506112fa565b816001600160a01b0316836001600160a01b031614156111405760405162461bcd60e51b815260206004820152601960248201527f4552433732313a20617070726f766520746f2063616c6c6572000000000000006044820152606401610671565b6001600160a01b03838116600081815260056020908152604080832094871680845294825291829020805460ff191686151590811790915591519182527f17307eab39ab6107e8899845ad3d59bd9653f200f220920489ca2b5937696c31910160405180910390a3505050565b6111b8848484610ed6565b6111c48484848461132d565b610c415760405162461bcd60e51b815260040161067190611a1f565b6060816112045750506040805180820190915260018152600360fc1b602082015290565b8160005b811561122e578061121881611bc0565b91506112279050600a83611b0f565b9150611208565b60008167ffffffffffffffff81111561125757634e487b7160e01b600052604160045260246000fd5b6040519080825280601f01601f191660200182016040528015611281576020820181803683370190505b5090505b8415610ece57611296600183611b42565b91506112a3600a86611bdb565b6112ae906030611af7565b60f81b8183815181106112d157634e487b7160e01b600052603260045260246000fd5b60200101906001600160f81b031916908160001a9053506112f3600a86611b0f565b9450611285565b611304838361143a565b611311600084848461132d565b6107a75760405162461bcd60e51b815260040161067190611a1f565b60006001600160a01b0384163b1561142f57604051630a85bd0160e11b81526001600160a01b0385169063150b7a02906113719033908990889088906004016119cf565b602060405180830381600087803b15801561138b57600080fd5b505af19250505080156113bb575060408051601f3d908101601f191682019092526113b89181019061182c565b60015b611415573d8080156113e9576040519150601f19603f3d011682016040523d82523d6000602084013e6113ee565b606091505b50805161140d5760405162461bcd60e51b815260040161067190611a1f565b805181602001fd5b6001600160e01b031916630a85bd0160e11b149050610ece565b506001949350505050565b6001600160a01b0382166114905760405162461bcd60e51b815260206004820181905260248201527f4552433732313a206d696e7420746f20746865207a65726f20616464726573736044820152606401610671565b6000818152600260205260409020546001600160a01b0316156114f55760405162461bcd60e51b815260206004820152601c60248201527f4552433732313a20746f6b656e20616c7265616479206d696e746564000000006044820152606401610671565b6001600160a01b038216600090815260036020526040812080546001929061151e908490611af7565b909155505060008181526002602052604080822080546001600160a01b0319166001600160a01b03861690811790915590518392907fddf252ad1be2c89b69c2b068fc378daa952ba7f163c4a11628f55a4df523b3ef908290a45050565b82805461158890611b85565b90600052602060002090601f0160209004810192826115aa57600085556115f0565b82601f106115c35782800160ff198235161785556115f0565b828001600101855582156115f0579182015b828111156115f05782358255916020019190600101906115d5565b506115fc929150611600565b5090565b5b808211156115fc5760008155600101611601565b80356001600160a01b038116811461162c57600080fd5b919050565b8035801515811461162c57600080fd5b600060208284031215611652578081fd5b61165b82611615565b9392505050565b60008060408385031215611674578081fd5b61167d83611615565b915061168b60208401611615565b90509250929050565b6000806000606084860312156116a8578081fd5b6116b184611615565b92506116bf60208501611615565b9150604084013590509250925092565b600080600080608085870312156116e4578081fd5b6116ed85611615565b93506116fb60208601611615565b925060408501359150606085013567ffffffffffffffff8082111561171e578283fd5b818701915087601f830112611731578283fd5b81358181111561174357611743611c1b565b604051601f8201601f19908116603f0116810190838211818310171561176b5761176b611c1b565b816040528281528a6020848701011115611783578586fd5b82602086016020830137918201602001949094529598949750929550505050565b600080604083850312156117b6578182fd5b6117bf83611615565b915061168b60208401611631565b600080604083850312156117df578182fd5b6117e883611615565b946020939093013593505050565b600060208284031215611807578081fd5b61165b82611631565b600060208284031215611821578081fd5b813561165b81611c31565b60006020828403121561183d578081fd5b815161165b81611c31565b6000806020838503121561185a578182fd5b823567ffffffffffffffff80821115611871578384fd5b818501915085601f830112611884578384fd5b813581811115611892578485fd5b8660208285010111156118a3578485fd5b60209290920196919550909350505050565b6000602082840312156118c6578081fd5b5035919050565b600081518084526118e5816020860160208601611b59565b601f01601f19169290920160200192915050565b6000815161190b818560208601611b59565b9290920192915050565b600080845482600182811c91508083168061193157607f831692505b602080841082141561195157634e487b7160e01b87526022600452602487fd5b8180156119655760018114611976576119a2565b60ff198616895284890196506119a2565b60008b815260209020885b8681101561199a5781548b820152908501908301611981565b505084890196505b5050505050506119c66119b582866118f9565b64173539b7b760d91b815260050190565b95945050505050565b6001600160a01b0385811682528416602082015260408101839052608060608201819052600090611a02908301846118cd565b9695505050505050565b60208152600061165b60208301846118cd565b60208082526032908201527f4552433732313a207472616e7366657220746f206e6f6e20455243373231526560408201527131b2b4bb32b91034b6b83632b6b2b73a32b960711b606082015260800190565b6020808252818101527f4f776e61626c653a2063616c6c6572206973206e6f7420746865206f776e6572604082015260600190565b60208082526031908201527f4552433732313a207472616e736665722063616c6c6572206973206e6f74206f6040820152701ddb995c881b9bdc88185c1c1c9bdd9959607a1b606082015260800190565b60008219821115611b0a57611b0a611bef565b500190565b600082611b1e57611b1e611c05565b500490565b6000816000190483118215151615611b3d57611b3d611bef565b500290565b600082821015611b5457611b54611bef565b500390565b60005b83811015611b74578181015183820152602001611b5c565b83811115610c415750506000910152565b600181811c90821680611b9957607f821691505b60208210811415611bba57634e487b7160e01b600052602260045260246000fd5b50919050565b6000600019821415611bd457611bd4611bef565b5060010190565b600082611bea57611bea611c05565b500690565b634e487b7160e01b600052601160045260246000fd5b634e487b7160e01b600052601260045260246000fd5b634e487b7160e01b600052604160045260246000fd5b6001600160e01b0319811681146108d957600080fdfea2646970667358221220538ae72a2f32b3c48219adb354188ae7376c7e46808903543971a56dd06b8e8b64736f6c63430008040033",
  "linkReferences": {},
  "deployedLinkReferences": {}
}